{
  "address": "0x9fE46736679d2D9a65F0992F2272dE9f3c7fa6e0",
  "abi": [
    {
      "inputs": [
        {
          "internalType": "address",
          "name": "vrfCoordinatorV2",
          "type": "address"
        },
        {
          "internalType": "uint256",
          "name": "_entranceFee",
          "type": "uint256"
        },
        {
          "internalType": "bytes32",
          "name": "keyHash",
          "type": "bytes32"
        },
        {
          "internalType": "uint64",
          "name": "subscriptionId",
          "type": "uint64"
        },
        {
          "internalType": "uint32",
          "name": "callbackGasLimit",
          "type": "uint32"
        },
        {
          "internalType": "uint256",
          "name": "interval",
          "type": "uint256"
        }
      ],
      "stateMutability": "nonpayable",
      "type": "constructor"
    },
    {
      "inputs": [],
      "name": "Lottery__LotteryNotOpen",
      "type": "error"
    },
    {
      "inputs": [],
      "name": "Lottery__NotEnoughEthSent",
      "type": "error"
    },
    {
      "inputs": [],
      "name": "Lottery__TransferFailed",
      "type": "error"
    },
    {
      "inputs": [
        {
          "internalType": "address",
          "name": "have",
          "type": "address"
        },
        {
          "internalType": "address",
          "name": "want",
          "type": "address"
        }
      ],
      "name": "OnlyCoordinatorCanFulfill",
      "type": "error"
    },
    {
      "anonymous": false,
      "inputs": [
        {
          "indexed": true,
          "internalType": "address",
          "name": "player",
          "type": "address"
        }
      ],
      "name": "LotteryEnter",
      "type": "event"
    },
    {
      "anonymous": false,
      "inputs": [
        {
          "indexed": true,
          "internalType": "uint256",
          "name": "requestId",
          "type": "uint256"
        }
      ],
      "name": "RequestedLotteryWinner",
      "type": "event"
    },
    {
      "anonymous": false,
      "inputs": [
        {
          "indexed": true,
          "internalType": "address",
          "name": "winner",
          "type": "address"
        }
      ],
      "name": "WinnerPicked",
      "type": "event"
    },
    {
      "inputs": [
        {
          "internalType": "bytes",
          "name": "",
          "type": "bytes"
        }
      ],
      "name": "checkUpkeep",
      "outputs": [
        {
          "internalType": "bool",
          "name": "upkeepNeeded",
          "type": "bool"
        },
        {
          "internalType": "bytes",
          "name": "",
          "type": "bytes"
        }
      ],
      "stateMutability": "view",
      "type": "function"
    },
    {
      "inputs": [],
      "name": "enterLottery",
      "outputs": [],
      "stateMutability": "payable",
      "type": "function"
    },
    {
      "inputs": [],
      "name": "getContractBalance",
      "outputs": [
        {
          "internalType": "uint256",
          "name": "",
          "type": "uint256"
        }
      ],
      "stateMutability": "view",
      "type": "function"
    },
    {
      "inputs": [],
      "name": "getEntranceFee",
      "outputs": [
        {
          "internalType": "uint256",
          "name": "",
          "type": "uint256"
        }
      ],
      "stateMutability": "view",
      "type": "function"
    },
    {
      "inputs": [],
      "name": "getInterval",
      "outputs": [
        {
          "internalType": "uint256",
          "name": "",
          "type": "uint256"
        }
      ],
      "stateMutability": "view",
      "type": "function"
    },
    {
      "inputs": [],
      "name": "getLatestTimeStamp",
      "outputs": [
        {
          "internalType": "uint256",
          "name": "",
          "type": "uint256"
        }
      ],
      "stateMutability": "view",
      "type": "function"
    },
    {
      "inputs": [],
      "name": "getLotteryState",
      "outputs": [
        {
          "internalType": "enum Lottery.LotteryState",
          "name": "",
          "type": "uint8"
        }
      ],
      "stateMutability": "view",
      "type": "function"
    },
    {
      "inputs": [],
      "name": "getNumWords",
      "outputs": [
        {
          "internalType": "uint256",
          "name": "",
          "type": "uint256"
        }
      ],
      "stateMutability": "pure",
      "type": "function"
    },
    {
      "inputs": [],
      "name": "getNumberOfPlayers",
      "outputs": [
        {
          "internalType": "uint256",
          "name": "",
          "type": "uint256"
        }
      ],
      "stateMutability": "view",
      "type": "function"
    },
    {
      "inputs": [
        {
          "internalType": "uint256",
          "name": "index",
          "type": "uint256"
        }
      ],
      "name": "getPlayer",
      "outputs": [
        {
          "internalType": "address",
          "name": "",
          "type": "address"
        }
      ],
      "stateMutability": "view",
      "type": "function"
    },
    {
      "inputs": [],
      "name": "getRecentWinner",
      "outputs": [
        {
          "internalType": "address",
          "name": "",
          "type": "address"
        }
      ],
      "stateMutability": "view",
      "type": "function"
    },
    {
      "inputs": [],
      "name": "getRequestConfirmations",
      "outputs": [
        {
          "internalType": "uint256",
          "name": "",
          "type": "uint256"
        }
      ],
      "stateMutability": "pure",
      "type": "function"
    },
    {
      "inputs": [
        {
          "internalType": "bytes",
          "name": "",
          "type": "bytes"
        }
      ],
      "name": "performUpkeep",
      "outputs": [],
      "stateMutability": "nonpayable",
      "type": "function"
    },
    {
      "inputs": [
        {
          "internalType": "uint256",
          "name": "requestId",
          "type": "uint256"
        },
        {
          "internalType": "uint256[]",
          "name": "randomWords",
          "type": "uint256[]"
        }
      ],
      "name": "rawFulfillRandomWords",
      "outputs": [],
      "stateMutability": "nonpayable",
      "type": "function"
    }
  ],
  "transactionHash": "0x1428a228b6cb3654d60a25294678e6b5f3742726e8b889c5f3eabc7307c89cf0",
  "args": [
    "0x5FbDB2315678afecb367f032d93F642f64180aa3",
    "10000000000000000",
    "0x79d3d8832d904592c0bf9818b621522c988bb8b0c05cdc3b15aea1b6e8db0c15",
    "1",
    "500000",
    "30"
  ],
  "numDeployments": 1,
  "solcInputHash": "c7ec6f710312802f006476a79101aae3",
  "bytecode": "0x6101606040523480156200001257600080fd5b50604051620017a6380380620017a6833981810160405281019062000038919062000294565b858073ffffffffffffffffffffffffffffffffffffffff1660808173ffffffffffffffffffffffffffffffffffffffff1681525050508573ffffffffffffffffffffffffffffffffffffffff1660a08173ffffffffffffffffffffffffffffffffffffffff16815250508460c081815250508360e081815250508267ffffffffffffffff166101008167ffffffffffffffff16815250508163ffffffff166101208163ffffffff16815250506000600160146101000a81548160ff021916908360018111156200010d576200010c62000330565b5b0217905550426002819055508061014081815250505050505050506200035f565b600080fd5b600073ffffffffffffffffffffffffffffffffffffffff82169050919050565b6000620001608262000133565b9050919050565b620001728162000153565b81146200017e57600080fd5b50565b600081519050620001928162000167565b92915050565b6000819050919050565b620001ad8162000198565b8114620001b957600080fd5b50565b600081519050620001cd81620001a2565b92915050565b6000819050919050565b620001e881620001d3565b8114620001f457600080fd5b50565b6000815190506200020881620001dd565b92915050565b600067ffffffffffffffff82169050919050565b6200022d816200020e565b81146200023957600080fd5b50565b6000815190506200024d8162000222565b92915050565b600063ffffffff82169050919050565b6200026e8162000253565b81146200027a57600080fd5b50565b6000815190506200028e8162000263565b92915050565b60008060008060008060c08789031215620002b457620002b36200012e565b5b6000620002c489828a0162000181565b9650506020620002d789828a01620001bc565b9550506040620002ea89828a01620001f7565b9450506060620002fd89828a016200023c565b93505060806200031089828a016200027d565b92505060a06200032389828a01620001bc565b9150509295509295509295565b7f4e487b7100000000000000000000000000000000000000000000000000000000600052602160045260246000fd5b60805160a05160c05160e0516101005161012051610140516113d7620003cf6000396000818161064201526106b8015260006104dc015260006104b90152600061049801526000818161034001526106de0152600061045c01526000818161036601526103ba01526113d76000f3fe6080604052600436106100dd5760003560e01c80636b68c03c1161007f57806391ad27b41161005957806391ad27b41461029f578063c1af5785146102ca578063e55ae4e8146102d4578063fd6673f514610311576100dd565b80636b68c03c1461020b5780636e04ff0d146102365780636f9fb98a14610274576100dd565b80634585e33b116100bb5780634585e33b14610161578063473f1ddc1461018a57806353a2c19a146101b55780635f1b0fd8146101e0576100dd565b806309bc33a7146100e25780631fe543e31461010d578063320229eb14610136575b600080fd5b3480156100ee57600080fd5b506100f761033c565b6040516101049190610b8f565b60405180910390f35b34801561011957600080fd5b50610134600480360381019061012f9190610d43565b610364565b005b34801561014257600080fd5b5061014b610424565b6040516101589190610b8f565b60405180910390f35b34801561016d57600080fd5b5061018860048036038101906101839190610dfa565b61042e565b005b34801561019657600080fd5b5061019f6105a3565b6040516101ac9190610e88565b60405180910390f35b3480156101c157600080fd5b506101ca6105cd565b6040516101d79190610b8f565b60405180910390f35b3480156101ec57600080fd5b506101f56105dc565b6040516102029190610b8f565b60405180910390f35b34801561021757600080fd5b506102206105e9565b60405161022d9190610f1a565b60405180910390f35b34801561024257600080fd5b5061025d60048036038101906102589190610fea565b610600565b60405161026b9291906110d6565b60405180910390f35b34801561028057600080fd5b506102896106ac565b6040516102969190610b8f565b60405180910390f35b3480156102ab57600080fd5b506102b46106b4565b6040516102c19190610b8f565b60405180910390f35b6102d26106dc565b005b3480156102e057600080fd5b506102fb60048036038101906102f69190611106565b61084b565b6040516103089190610e88565b60405180910390f35b34801561031d57600080fd5b50610326610892565b6040516103339190610b8f565b60405180910390f35b60007f0000000000000000000000000000000000000000000000000000000000000000905090565b7f000000000000000000000000000000000000000000000000000000000000000073ffffffffffffffffffffffffffffffffffffffff163373ffffffffffffffffffffffffffffffffffffffff161461041657337f00000000000000000000000000000000000000000000000000000000000000006040517f1cf993f400000000000000000000000000000000000000000000000000000000815260040161040d929190611133565b60405180910390fd5b610420828261089e565b5050565b6000600254905090565b60018060146101000a81548160ff0219169083600181111561045357610452610ea3565b5b021790555060007f000000000000000000000000000000000000000000000000000000000000000073ffffffffffffffffffffffffffffffffffffffff16635d3b1d307f00000000000000000000000000000000000000000000000000000000000000007f000000000000000000000000000000000000000000000000000000000000000060037f000000000000000000000000000000000000000000000000000000000000000060016040518663ffffffff1660e01b815260040161051d9594939291906111d4565b602060405180830381600087803b15801561053757600080fd5b505af115801561054b573d6000803e3d6000fd5b505050506040513d601f19601f8201168201806040525081019061056f919061123c565b9050807febf56642252004c18a776f30d528e7a0ce8c5db14b6596fb6550f630c8a24c6c60405160405180910390a2505050565b6000600160009054906101000a900473ffffffffffffffffffffffffffffffffffffffff16905090565b6000600163ffffffff16905090565b6000600361ffff16905090565b6000600160149054906101000a900460ff16905090565b60006060600080600181111561061957610618610ea3565b5b600160149054906101000a900460ff16600181111561063b5761063a610ea3565b5b14905060007f00000000000000000000000000000000000000000000000000000000000000006002544261066f9190611298565b1190506000806000805490501190506000804711905083801561068f5750825b80156106985750815b80156106a15750805b955050505050915091565b600047905090565b60007f0000000000000000000000000000000000000000000000000000000000000000905090565b7f0000000000000000000000000000000000000000000000000000000000000000341015610736576040517f168b2e4d00000000000000000000000000000000000000000000000000000000815260040160405180910390fd5b6000600181111561074a57610749610ea3565b5b600160149054906101000a900460ff16600181111561076c5761076b610ea3565b5b146107a3576040517f823ea8bb00000000000000000000000000000000000000000000000000000000815260040160405180910390fd5b6000339080600181540180825580915050600190039060005260206000200160009091909190916101000a81548173ffffffffffffffffffffffffffffffffffffffff021916908373ffffffffffffffffffffffffffffffffffffffff1602179055503373ffffffffffffffffffffffffffffffffffffffff167f1d64fb5ba9f2548c5b98468d58f25b87b9e866afee0122e92d9fe722bf85076c60405160405180910390a2565b60008082815481106108605761085f6112cc565b5b9060005260206000200160009054906101000a900473ffffffffffffffffffffffffffffffffffffffff169050919050565b60008080549050905090565b60008080549050826000815181106108b9576108b86112cc565b5b60200260200101516108cb919061132a565b905060008082815481106108e2576108e16112cc565b5b9060005260206000200160009054906101000a900473ffffffffffffffffffffffffffffffffffffffff16905080600160006101000a81548173ffffffffffffffffffffffffffffffffffffffff021916908373ffffffffffffffffffffffffffffffffffffffff1602179055506000600160146101000a81548160ff0219169083600181111561097657610975610ea3565b5b0217905550600067ffffffffffffffff81111561099657610995610c00565b5b6040519080825280602002602001820160405280156109c45781602001602082028036833780820191505090505b50600090805190602001906109da929190610acf565b504260028190555060008173ffffffffffffffffffffffffffffffffffffffff1647604051610a089061138c565b60006040518083038185875af1925050503d8060008114610a45576040519150601f19603f3d011682016040523d82523d6000602084013e610a4a565b606091505b5050905080610a85576040517f1c94012000000000000000000000000000000000000000000000000000000000815260040160405180910390fd5b8173ffffffffffffffffffffffffffffffffffffffff167f5b690ec4a06fe979403046eaeea5b3ce38524683c3001f662c8b5a829632f7df60405160405180910390a25050505050565b828054828255906000526020600020908101928215610b48579160200282015b82811115610b475782518260006101000a81548173ffffffffffffffffffffffffffffffffffffffff021916908373ffffffffffffffffffffffffffffffffffffffff16021790555091602001919060010190610aef565b5b509050610b559190610b59565b5090565b5b80821115610b72576000816000905550600101610b5a565b5090565b6000819050919050565b610b8981610b76565b82525050565b6000602082019050610ba46000830184610b80565b92915050565b6000604051905090565b600080fd5b600080fd5b610bc781610b76565b8114610bd257600080fd5b50565b600081359050610be481610bbe565b92915050565b600080fd5b6000601f19601f8301169050919050565b7f4e487b7100000000000000000000000000000000000000000000000000000000600052604160045260246000fd5b610c3882610bef565b810181811067ffffffffffffffff82111715610c5757610c56610c00565b5b80604052505050565b6000610c6a610baa565b9050610c768282610c2f565b919050565b600067ffffffffffffffff821115610c9657610c95610c00565b5b602082029050602081019050919050565b600080fd5b6000610cbf610cba84610c7b565b610c60565b90508083825260208201905060208402830185811115610ce257610ce1610ca7565b5b835b81811015610d0b5780610cf78882610bd5565b845260208401935050602081019050610ce4565b5050509392505050565b600082601f830112610d2a57610d29610bea565b5b8135610d3a848260208601610cac565b91505092915050565b60008060408385031215610d5a57610d59610bb4565b5b6000610d6885828601610bd5565b925050602083013567ffffffffffffffff811115610d8957610d88610bb9565b5b610d9585828601610d15565b9150509250929050565b600080fd5b60008083601f840112610dba57610db9610bea565b5b8235905067ffffffffffffffff811115610dd757610dd6610d9f565b5b602083019150836001820283011115610df357610df2610ca7565b5b9250929050565b60008060208385031215610e1157610e10610bb4565b5b600083013567ffffffffffffffff811115610e2f57610e2e610bb9565b5b610e3b85828601610da4565b92509250509250929050565b600073ffffffffffffffffffffffffffffffffffffffff82169050919050565b6000610e7282610e47565b9050919050565b610e8281610e67565b82525050565b6000602082019050610e9d6000830184610e79565b92915050565b7f4e487b7100000000000000000000000000000000000000000000000000000000600052602160045260246000fd5b60028110610ee357610ee2610ea3565b5b50565b6000819050610ef482610ed2565b919050565b6000610f0482610ee6565b9050919050565b610f1481610ef9565b82525050565b6000602082019050610f2f6000830184610f0b565b92915050565b600080fd5b600067ffffffffffffffff821115610f5557610f54610c00565b5b610f5e82610bef565b9050602081019050919050565b82818337600083830152505050565b6000610f8d610f8884610f3a565b610c60565b905082815260208101848484011115610fa957610fa8610f35565b5b610fb4848285610f6b565b509392505050565b600082601f830112610fd157610fd0610bea565b5b8135610fe1848260208601610f7a565b91505092915050565b60006020828403121561100057610fff610bb4565b5b600082013567ffffffffffffffff81111561101e5761101d610bb9565b5b61102a84828501610fbc565b91505092915050565b60008115159050919050565b61104881611033565b82525050565b600081519050919050565b600082825260208201905092915050565b60005b8381101561108857808201518184015260208101905061106d565b83811115611097576000848401525b50505050565b60006110a88261104e565b6110b28185611059565b93506110c281856020860161106a565b6110cb81610bef565b840191505092915050565b60006040820190506110eb600083018561103f565b81810360208301526110fd818461109d565b90509392505050565b60006020828403121561111c5761111b610bb4565b5b600061112a84828501610bd5565b91505092915050565b60006040820190506111486000830185610e79565b6111556020830184610e79565b9392505050565b6000819050919050565b61116f8161115c565b82525050565b600067ffffffffffffffff82169050919050565b61119281611175565b82525050565b600061ffff82169050919050565b6111af81611198565b82525050565b600063ffffffff82169050919050565b6111ce816111b5565b82525050565b600060a0820190506111e96000830188611166565b6111f66020830187611189565b61120360408301866111a6565b61121060608301856111c5565b61121d60808301846111c5565b9695505050505050565b60008151905061123681610bbe565b92915050565b60006020828403121561125257611251610bb4565b5b600061126084828501611227565b91505092915050565b7f4e487b7100000000000000000000000000000000000000000000000000000000600052601160045260246000fd5b60006112a382610b76565b91506112ae83610b76565b9250828210156112c1576112c0611269565b5b828203905092915050565b7f4e487b7100000000000000000000000000000000000000000000000000000000600052603260045260246000fd5b7f4e487b7100000000000000000000000000000000000000000000000000000000600052601260045260246000fd5b600061133582610b76565b915061134083610b76565b9250826113505761134f6112fb565b5b828206905092915050565b600081905092915050565b50565b600061137660008361135b565b915061138182611366565b600082019050919050565b600061139782611369565b915081905091905056fea2646970667358221220e9ff7e6b933d80ad9f59660df5a826f9ccc74aeab54fd16f04f0ba543d5c07c564736f6c63430008090033",
  "devdoc": {
    "author": "Edison Mgbeokwere",
    "details": "This contract implements Chainlink VRF v2 and ChainLink keepers",
    "kind": "dev",
    "methods": {
      "checkUpkeep(bytes)": {
        "details": "This is the function that the Chainlink keeper node calls they look for the \"upkeepNeeded\" to return true The following should be true for upkeepNeeded to return true: 1. Our time interval should have passed 2. The lottery should have at least 1 player and some ETH 3. Our subscription is funded with LINK 4. The lottery should be in an \"open\" state"
      }
    },
    "title": "A sample Lottery contract",
    "version": 1
  },
  "userdoc": {
    "kind": "user",
    "methods": {},
    "notice": "This contract is for creating an untamperable loterry application",
    "version": 1
  },
  "storageLayout": {
    "storage": [
      {
        "astId": 241,
        "contract": "contracts/Lottery.sol:Lottery",
        "label": "s_players",
        "offset": 0,
        "slot": "0",
        "type": "t_array(t_address_payable)dyn_storage"
      },
      {
        "astId": 255,
        "contract": "contracts/Lottery.sol:Lottery",
        "label": "s_recentWinner",
        "offset": 0,
        "slot": "1",
        "type": "t_address"
      },
      {
        "astId": 258,
        "contract": "contracts/Lottery.sol:Lottery",
        "label": "s_lotteryState",
        "offset": 20,
        "slot": "1",
        "type": "t_enum(LotteryState)233"
      },
      {
        "astId": 260,
        "contract": "contracts/Lottery.sol:Lottery",
        "label": "s_lastTimeStamp",
        "offset": 0,
        "slot": "2",
        "type": "t_uint256"
      }
    ],
    "types": {
      "t_address": {
        "encoding": "inplace",
        "label": "address",
        "numberOfBytes": "20"
      },
      "t_address_payable": {
        "encoding": "inplace",
        "label": "address payable",
        "numberOfBytes": "20"
      },
      "t_array(t_address_payable)dyn_storage": {
        "base": "t_address_payable",
        "encoding": "dynamic_array",
        "label": "address payable[]",
        "numberOfBytes": "32"
      },
      "t_enum(LotteryState)233": {
        "encoding": "inplace",
        "label": "enum Lottery.LotteryState",
        "numberOfBytes": "1"
      },
      "t_uint256": {
        "encoding": "inplace",
        "label": "uint256",
        "numberOfBytes": "32"
      }
    }
  }
}